{
  "contractName": "SistemaElecciones",
  "abi": [
    {
      "inputs": [],
      "name": "propietario",
      "outputs": [
        {
          "internalType": "address",
          "name": "",
          "type": "address"
        }
      ],
      "stateMutability": "view",
      "type": "function",
      "constant": true
    },
    {
      "inputs": [
        {
          "internalType": "string",
          "name": "_nombreCandidato",
          "type": "string"
        },
        {
          "internalType": "uint256",
          "name": "_edadCandidato",
          "type": "uint256"
        },
        {
          "internalType": "string",
          "name": "_idCandidato",
          "type": "string"
        }
      ],
      "name": "crearCandidato",
      "outputs": [],
      "stateMutability": "nonpayable",
      "type": "function"
    },
    {
      "inputs": [],
      "name": "verCandidatos",
      "outputs": [
        {
          "internalType": "string[][]",
          "name": "",
          "type": "string[][]"
        }
      ],
      "stateMutability": "view",
      "type": "function",
      "constant": true
    },
    {
      "inputs": [
        {
          "internalType": "string",
          "name": "_candidatoId",
          "type": "string"
        }
      ],
      "name": "voto",
      "outputs": [],
      "stateMutability": "nonpayable",
      "type": "function"
    },
    {
      "inputs": [
        {
          "internalType": "string",
          "name": "_candidatoId",
          "type": "string"
        }
      ],
      "name": "verVotos",
      "outputs": [
        {
          "internalType": "uint256",
          "name": "",
          "type": "uint256"
        }
      ],
      "stateMutability": "view",
      "type": "function",
      "constant": true
    },
    {
      "inputs": [],
      "name": "winner",
      "outputs": [
        {
          "internalType": "string",
          "name": "",
          "type": "string"
        },
        {
          "internalType": "string",
          "name": "",
          "type": "string"
        }
      ],
      "stateMutability": "view",
      "type": "function",
      "constant": true
    }
  ],
  "bytecode": "0x608060405234801561001057600080fd5b50611b77806100206000396000f3fe608060405234801561001057600080fd5b50600436106100625760003560e01c80632bb24724146100675780633c4f81cd1461008357806360df75d4146100a15780636f67e449146100d1578063caaa49a6146100ed578063dfbf53ae1461010b575b600080fd5b610081600480360381019061007c9190610f8e565b61012a565b005b61008b610346565b604051610098919061105a565b60405180910390f35b6100bb60048036038101906100b69190611075565b61036a565b6040516100c891906110cd565b60405180910390f35b6100eb60048036038101906100e69190611075565b610392565b005b6100f561059e565b60405161010291906112eb565b60405180910390f35b610113610889565b604051610121929190611357565b60405180910390f35b6011821161016d576040517f08c379a0000000000000000000000000000000000000000000000000000000008152600401610164906113da565b60405180910390fd5b600083838360405160200161018493929190611457565b604051602081830303815290604052805190602001209050600082905060098151146101e5576040517f08c379a00000000000000000000000000000000000000000000000000000000081526004016101dc906114fe565b60405180910390fd5b60005b6003805490508110156102d05783604051602001610206919061151e565b60405160208183030381529060405280519060200120600382815481106102305761022f611535565b5b9060005260206000200160018154811061024d5761024c611535565b5b90600052602060002001604051602001610267919061165c565b60405160208183030381529060405280519060200120036102bd576040517f08c379a00000000000000000000000000000000000000000000000000000000081526004016102b4906116e5565b60405180910390fd5b80806102c890611734565b9150506101e8565b50816001866040516102e2919061151e565b90815260200160405180910390208190555060036040518060400160405280878152602001858152509080600181540180825580915050600190039060005260206000200160009091909190915090600261033e929190610d24565b505050505050565b60008054906101000a900473ffffffffffffffffffffffffffffffffffffffff1681565b600060028260405161037c919061151e565b9081526020016040518091039020549050919050565b6000336040516020016103a591906117c4565b60405160208183030381529060405280519060200120905060005b6004805490508110156104405781600482815481106103e2576103e1611535565b5b90600052602060002001540361042d576040517f08c379a00000000000000000000000000000000000000000000000000000000081526004016104249061182b565b60405180910390fd5b808061043890611734565b9150506103c0565b506000805b6003805490508110156104fb5783604051602001610463919061151e565b604051602081830303815290604052805190602001206003828154811061048d5761048c611535565b5b906000526020600020016001815481106104aa576104a9611535565b5b906000526020600020016040516020016104c4919061165c565b60405160208183030381529060405280519060200120036104e857600191506104fb565b80806104f390611734565b915050610445565b508061053c576040517f08c379a000000000000000000000000000000000000000000000000000000000815260040161053390611897565b60405180910390fd5b6004829080600181540180825580915050600190039060005260206000200160009091909190915055600283604051610575919061151e565b9081526020016040518091039020600081548092919061059490611734565b9190505550505050565b6060600060038054905067ffffffffffffffff8111156105c1576105c0610e2d565b5b6040519080825280602002602001820160405280156105f457816020015b60608152602001906001900390816105df5790505b50905060005b60038054905081101561088157600267ffffffffffffffff81111561062257610621610e2d565b5b60405190808252806020026020018201604052801561065557816020015b60608152602001906001900390816106405790505b5082828151811061066957610668611535565b5b60200260200101819052506003818154811061068857610687611535565b5b906000526020600020016000815481106106a5576106a4611535565b5b9060005260206000200180546106ba90611593565b80601f01602080910402602001604051908101604052809291908181526020018280546106e690611593565b80156107335780601f1061070857610100808354040283529160200191610733565b820191906000526020600020905b81548152906001019060200180831161071657829003601f168201915b505050505082828151811061074b5761074a611535565b5b602002602001015160008151811061076657610765611535565b5b60200260200101819052506003818154811061078557610784611535565b5b906000526020600020016001815481106107a2576107a1611535565b5b9060005260206000200180546107b790611593565b80601f01602080910402602001604051908101604052809291908181526020018280546107e390611593565b80156108305780601f1061080557610100808354040283529160200191610830565b820191906000526020600020905b81548152906001019060200180831161081357829003601f168201915b505050505082828151811061084857610847611535565b5b602002602001015160018151811061086357610862611535565b5b6020026020010181905250808061087990611734565b9150506105fa565b508091505090565b606080600060036000815481106108a3576108a2611535565b5b906000526020600020016001815481106108c0576108bf611535565b5b9060005260206000200180546108d590611593565b80601f016020809104026020016040519081016040528092919081815260200182805461090190611593565b801561094e5780601f106109235761010080835404028352916020019161094e565b820191906000526020600020905b81548152906001019060200180831161093157829003601f168201915b505050505090506000600360008154811061096c5761096b611535565b5b9060005260206000200160008154811061098957610988611535565b5b90600052602060002001805461099e90611593565b80601f01602080910402602001604051908101604052809291908181526020018280546109ca90611593565b8015610a175780601f106109ec57610100808354040283529160200191610a17565b820191906000526020600020905b8154815290600101906020018083116109fa57829003601f168201915b50505050509050600080600190505b600380549050811015610cdc57600260038281548110610a4957610a48611535565b5b90600052602060002001600181548110610a6657610a65611535565b5b90600052602060002001604051610a7d919061165c565b908152602001604051809103902054600285604051610a9c919061151e565b9081526020016040518091039020541015610c465760038181548110610ac557610ac4611535565b5b90600052602060002001600181548110610ae257610ae1611535565b5b906000526020600020018054610af790611593565b80601f0160208091040260200160405190810160405280929190818152602001828054610b2390611593565b8015610b705780601f10610b4557610100808354040283529160200191610b70565b820191906000526020600020905b815481529060010190602001808311610b5357829003601f168201915b5050505050935060038181548110610b8b57610b8a611535565b5b90600052602060002001600081548110610ba857610ba7611535565b5b906000526020600020018054610bbd90611593565b80601f0160208091040260200160405190810160405280929190818152602001828054610be990611593565b8015610c365780601f10610c0b57610100808354040283529160200191610c36565b820191906000526020600020905b815481529060010190602001808311610c1957829003601f168201915b5050505050925060009150610cc9565b600260038281548110610c5c57610c5b611535565b5b90600052602060002001600181548110610c7957610c78611535565b5b90600052602060002001604051610c90919061165c565b908152602001604051809103902054600285604051610caf919061151e565b90815260200160405180910390205403610cc857600191505b5b8080610cd490611734565b915050610a26565b506001151581151503610d1757604051806060016040528060218152602001611b216021913991506040518060200160405280600081525092505b8183945094505050509091565b828054828255906000526020600020908101928215610d6c579160200282015b82811115610d6b578251829081610d5b9190611a4e565b5091602001919060010190610d44565b5b509050610d799190610d7d565b5090565b5b80821115610d9d5760008181610d949190610da1565b50600101610d7e565b5090565b508054610dad90611593565b6000825580601f10610dbf5750610dde565b601f016020900490600052602060002090810190610ddd9190610de1565b5b50565b5b80821115610dfa576000816000905550600101610de2565b5090565b6000604051905090565b600080fd5b600080fd5b600080fd5b600080fd5b6000601f19601f8301169050919050565b7f4e487b7100000000000000000000000000000000000000000000000000000000600052604160045260246000fd5b610e6582610e1c565b810181811067ffffffffffffffff82111715610e8457610e83610e2d565b5b80604052505050565b6000610e97610dfe565b9050610ea38282610e5c565b919050565b600067ffffffffffffffff821115610ec357610ec2610e2d565b5b610ecc82610e1c565b9050602081019050919050565b82818337600083830152505050565b6000610efb610ef684610ea8565b610e8d565b905082815260208101848484011115610f1757610f16610e17565b5b610f22848285610ed9565b509392505050565b600082601f830112610f3f57610f3e610e12565b5b8135610f4f848260208601610ee8565b91505092915050565b6000819050919050565b610f6b81610f58565b8114610f7657600080fd5b50565b600081359050610f8881610f62565b92915050565b600080600060608486031215610fa757610fa6610e08565b5b600084013567ffffffffffffffff811115610fc557610fc4610e0d565b5b610fd186828701610f2a565b9350506020610fe286828701610f79565b925050604084013567ffffffffffffffff81111561100357611002610e0d565b5b61100f86828701610f2a565b9150509250925092565b600073ffffffffffffffffffffffffffffffffffffffff82169050919050565b600061104482611019565b9050919050565b61105481611039565b82525050565b600060208201905061106f600083018461104b565b92915050565b60006020828403121561108b5761108a610e08565b5b600082013567ffffffffffffffff8111156110a9576110a8610e0d565b5b6110b584828501610f2a565b91505092915050565b6110c781610f58565b82525050565b60006020820190506110e260008301846110be565b92915050565b600081519050919050565b600082825260208201905092915050565b6000819050602082019050919050565b600081519050919050565b600082825260208201905092915050565b6000819050602082019050919050565b600081519050919050565b600082825260208201905092915050565b60005b8381101561117a57808201518184015260208101905061115f565b60008484015250505050565b600061119182611140565b61119b818561114b565b93506111ab81856020860161115c565b6111b481610e1c565b840191505092915050565b60006111cb8383611186565b905092915050565b6000602082019050919050565b60006111eb82611114565b6111f5818561111f565b93508360208202850161120785611130565b8060005b85811015611243578484038952815161122485826111bf565b945061122f836111d3565b925060208a0199505060018101905061120b565b50829750879550505050505092915050565b600061126183836111e0565b905092915050565b6000602082019050919050565b6000611281826110e8565b61128b81856110f3565b93508360208202850161129d85611104565b8060005b858110156112d957848403895281516112ba8582611255565b94506112c583611269565b925060208a019950506001810190506112a1565b50829750879550505050505092915050565b600060208201905081810360008301526113058184611276565b905092915050565b600082825260208201905092915050565b600061132982611140565b611333818561130d565b935061134381856020860161115c565b61134c81610e1c565b840191505092915050565b60006040820190508181036000830152611371818561131e565b90508181036020830152611385818461131e565b90509392505050565b7f4c612065646164206dc3ad6e696d612065732031380000000000000000000000600082015250565b60006113c460158361130d565b91506113cf8261138e565b602082019050919050565b600060208201905081810360008301526113f3816113b7565b9050919050565b600081905092915050565b600061141082611140565b61141a81856113fa565b935061142a81856020860161115c565b80840191505092915050565b6000819050919050565b61145161144c82610f58565b611436565b82525050565b60006114638286611405565b915061146f8285611440565b60208201915061147f8284611405565b9150819050949350505050565b7f456c2049442064656c2063616e64696461746f20646562652074656e6572206560008201527f78616374616d656e746520392063617261637465726573000000000000000000602082015250565b60006114e860378361130d565b91506114f38261148c565b604082019050919050565b60006020820190508181036000830152611517816114db565b9050919050565b600061152a8284611405565b915081905092915050565b7f4e487b7100000000000000000000000000000000000000000000000000000000600052603260045260246000fd5b7f4e487b7100000000000000000000000000000000000000000000000000000000600052602260045260246000fd5b600060028204905060018216806115ab57607f821691505b6020821081036115be576115bd611564565b5b50919050565b60008190508160005260206000209050919050565b600081546115e681611593565b6115f081866113fa565b9450600182166000811461160b576001811461162057611653565b60ff1983168652811515820286019350611653565b611629856115c4565b60005b8381101561164b5781548189015260018201915060208101905061162c565b838801955050505b50505092915050565b600061166882846115d9565b915081905092915050565b7f59612065786973746520756e2063616e64696461746f20636f6e206c61206d6960008201527f736d612049440000000000000000000000000000000000000000000000000000602082015250565b60006116cf60268361130d565b91506116da82611673565b604082019050919050565b600060208201905081810360008301526116fe816116c2565b9050919050565b7f4e487b7100000000000000000000000000000000000000000000000000000000600052601160045260246000fd5b600061173f82610f58565b91507fffffffffffffffffffffffffffffffffffffffffffffffffffffffffffffffff820361177157611770611705565b5b600182019050919050565b60008160601b9050919050565b60006117948261177c565b9050919050565b60006117a682611789565b9050919050565b6117be6117b982611039565b61179b565b82525050565b60006117d082846117ad565b60148201915081905092915050565b7f557374656420796120686120766f7461646f2100000000000000000000000000600082015250565b600061181560138361130d565b9150611820826117df565b602082019050919050565b6000602082019050818103600083015261184481611808565b9050919050565b7f456c2063616e64696461746f696e64696361646f204e6f206578697374650000600082015250565b6000611881601e8361130d565b915061188c8261184b565b602082019050919050565b600060208201905081810360008301526118b081611874565b9050919050565b60006020601f8301049050919050565b600082821b905092915050565b6000600883026119047fffffffffffffffffffffffffffffffffffffffffffffffffffffffffffffffff826118c7565b61190e86836118c7565b95508019841693508086168417925050509392505050565b6000819050919050565b600061194b61194661194184610f58565b611926565b610f58565b9050919050565b6000819050919050565b61196583611930565b61197961197182611952565b8484546118d4565b825550505050565b600090565b61198e611981565b61199981848461195c565b505050565b5b818110156119bd576119b2600082611986565b60018101905061199f565b5050565b601f821115611a02576119d3816115c4565b6119dc846118b7565b810160208510156119eb578190505b6119ff6119f7856118b7565b83018261199e565b50505b505050565b600082821c905092915050565b6000611a2560001984600802611a07565b1980831691505092915050565b6000611a3e8383611a14565b9150826002028217905092915050565b611a5782611140565b67ffffffffffffffff811115611a7057611a6f610e2d565b5b611a7a8254611593565b611a858282856119c1565b600060209050601f831160018114611ab85760008415611aa6578287015190505b611ab08582611a32565b865550611b18565b601f198416611ac6866115c4565b60005b82811015611aee57848901518255600182019150602085019450602081019050611ac9565b86831015611b0b5784890151611b07601f891682611a14565b8355505b6001600288020188555050505b50505050505056fec2a148617920756e20656d7061746520656e7472652063616e64696461746f7321a26469706673582212206d03b3f593d02af7c7064109649b696fab3437a7c420db19566aacd356f845bc64736f6c63430008130033",
  "immutableReferences": {},
  "source": "// SPDX-License-Identifier: MIT\r\npragma solidity 0.8.19;\r\npragma experimental ABIEncoderV2;\r\n\r\ncontract SistemaElecciones {\r\n    //Direccion del propietario del contrato\r\n    address public propietario;\r\n\r\n    //Relacin entre el nombre del candidato y el hash de sus datos personales\r\n    mapping(string => bytes32) ID_candidato;\r\n\r\n    // Relacin entre el nombre del candidato y el nmero de votos\r\n    mapping(string => uint) votos_candidato;\r\n\r\n    //Lista para almacenar los nombres de los candidatos\r\n    string[][] candidatos;\r\n\r\n    //Lista de los votantes, sirve para identificar a los votantes y que no se vote mas de una vez\r\n    bytes32[] votantes; //hash de la identidad de los votantes\r\n\r\n    //Permitir presentarse a las elecciones\r\n    function crearCandidato(\r\n        string memory _nombreCandidato,\r\n        uint _edadCandidato,\r\n        string memory _idCandidato\r\n    ) public {\r\n        //Hash de los datos del candidato\r\n        require(_edadCandidato > 17, unicode\"La edad mnima es 18\");\r\n        bytes32 hash_Candi = keccak256(\r\n            abi.encodePacked(_nombreCandidato, _edadCandidato, _idCandidato)\r\n        );\r\n        //A continuacin se ver si el id tiene un tamao de 9 carcteres\r\n        bytes memory idBytes = bytes(_idCandidato);\r\n        require(\r\n            idBytes.length == 9,\r\n            unicode\"El ID del candidato debe tener exactamente 9 caracteres\"\r\n        );\r\n        // Verificar si ya existe un candidato con la misma ID\r\n        for (uint i = 0; i < candidatos.length; i++) {\r\n            if (\r\n                keccak256(abi.encodePacked(candidatos[i][1])) ==\r\n                keccak256(abi.encodePacked(_idCandidato))\r\n            ) {\r\n                // Si ya existe un candidato con la misma ID, lanzamos una excepcin\r\n                revert(\"Ya existe un candidato con la misma ID\");\r\n            }\r\n        }\r\n\r\n        //Almacenar hash de los datos del candidato ligados a su nombre\r\n        ID_candidato[_nombreCandidato] = hash_Candi;\r\n\r\n        //Almacenar nombre del candidato con funcion push\r\n        //candidatos.push(_nombreCandidato);\r\n        candidatos.push([_nombreCandidato, _idCandidato]);\r\n    }\r\n\r\n    //funcin que indique que candidatos hay\r\n    function verCandidatos() public view returns (string[][] memory) {\r\n        // Inicializamos una nueva matriz de cadenas para almacenar los nombres y Id's de los candidatos\r\n        string[][] memory nomId = new string[][](candidatos.length);\r\n\r\n        // Recorremos la matriz candidatos y almacenamos los nombres e Id's de cada candidato en la nueva matriz\r\n        for (uint i = 0; i < candidatos.length; i++) {\r\n            // Creamos una nueva sub-matriz para almacenar el nombre y los Id's del candidato actual\r\n            nomId[i] = new string[](2);\r\n            nomId[i][0] = candidatos[i][0]; // Almacenamos el nombre del candidato\r\n            nomId[i][1] = candidatos[i][1]; // Almacenamos la Id del candidato\r\n        }\r\n\r\n        // Devolvemos la nueva matriz de nombres y Id's\r\n        return nomId;\r\n    }\r\n\r\n    //funcion que permite votar\r\n    function voto(string memory _candidatoId) public {\r\n        //Calculo del hush de la persona que ha intentado votar\r\n        bytes32 hash_votante = keccak256(abi.encodePacked(msg.sender));\r\n\r\n        //Verificacin de que el votante NO ha votado\r\n        for (uint i = 0; i < votantes.length; i++) {\r\n            require(votantes[i] != hash_votante, unicode\"Usted ya ha votado!\");\r\n        }\r\n\r\n        //Se verifica la existencia del candidato\r\n        bool existe = false;\r\n        for (uint i = 0; i < candidatos.length; i++) {\r\n            if (\r\n                keccak256(abi.encodePacked(candidatos[i][1])) ==\r\n                keccak256(abi.encodePacked(_candidatoId))\r\n            ) {\r\n                existe = true;\r\n                break;\r\n            }\r\n        }\r\n        require(existe, unicode\"El candidatoindicado No existe\");\r\n\r\n        //Almacenamos el hash del votante dentro del array de votantes\r\n        votantes.push(hash_votante);\r\n\r\n        //Aadir un voto al candidato\r\n        votos_candidato[_candidatoId]++;\r\n    }\r\n\r\n    //Dado el nombre del candidato se devuelve el nmero de votos que tiene\r\n    function verVotos(string memory _candidatoId) public view returns (uint) {\r\n        return votos_candidato[_candidatoId]; //Obtener los votos que tiene el candidato\r\n    }\r\n\r\n    //Obtencin del candidato ganador de las elecciones\r\n    function winner() public view returns (string memory, string memory) {\r\n        //Esta variable va a obtener el nomre del ganador\r\n        string memory idGanador = candidatos[0][1];\r\n        string memory nomGanador = candidatos[0][0];\r\n        bool empate;\r\n\r\n        for (uint i = 1; i < candidatos.length; i++) {\r\n            if (\r\n                votos_candidato[idGanador] < votos_candidato[candidatos[i][1]]\r\n            ) {\r\n                idGanador = candidatos[i][1];\r\n                nomGanador = candidatos[i][0];\r\n                empate = false;\r\n            } else {\r\n                if (\r\n                    votos_candidato[idGanador] ==\r\n                    votos_candidato[candidatos[i][1]]\r\n                ) {\r\n                    empate = true;\r\n                }\r\n            }\r\n        }\r\n        if (empate == true) {\r\n            nomGanador = unicode\"Hay un empate entre candidatos!\";\r\n            idGanador = \"\";\r\n        }\r\n        return (nomGanador, idGanador);\r\n    }\r\n}\r\n",
  "sourcePath": "C:\\Estudis\\Universitat\\TFG\\tfgBC\\contracts\\SistemaElecciones.sol",
  "compiler": {
    "name": "solc",
    "version": "0.8.19+commit.7dd6d404.Emscripten.clang"
  },
  "schemaVersion": "3.4.13",
  "updatedAt": "2023-05-27T09:06:12.838Z",
  "networkType": "ethereum",
  "devdoc": {
    "kind": "dev",
    "methods": {},
    "version": 1
  },
  "userdoc": {
    "kind": "user",
    "methods": {},
    "version": 1
  }
}